{
  "_format": "hh-sol-artifact-1",
  "contractName": "UserRegistry",
  "sourceName": "contracts/UserRegistry.sol",
  "abi": [
    {
      "anonymous": false,
      "inputs": [
        {
          "indexed": true,
          "internalType": "address",
          "name": "owner",
          "type": "address"
        },
        {
          "indexed": false,
          "internalType": "string",
          "name": "newBio",
          "type": "string"
        }
      ],
      "name": "BioUpdated",
      "type": "event"
    },
    {
      "anonymous": false,
      "inputs": [
        {
          "indexed": true,
          "internalType": "address",
          "name": "owner",
          "type": "address"
        },
        {
          "indexed": true,
          "internalType": "address",
          "name": "delegate",
          "type": "address"
        }
      ],
      "name": "DelegateAdded",
      "type": "event"
    },
    {
      "anonymous": false,
      "inputs": [
        {
          "indexed": true,
          "internalType": "address",
          "name": "owner",
          "type": "address"
        },
        {
          "indexed": true,
          "internalType": "address",
          "name": "delegate",
          "type": "address"
        }
      ],
      "name": "DelegateRemoved",
      "type": "event"
    },
    {
      "anonymous": false,
      "inputs": [
        {
          "indexed": true,
          "internalType": "address",
          "name": "owner",
          "type": "address"
        },
        {
          "indexed": false,
          "internalType": "string",
          "name": "newName",
          "type": "string"
        }
      ],
      "name": "DisplayNameUpdated",
      "type": "event"
    },
    {
      "anonymous": false,
      "inputs": [
        {
          "indexed": true,
          "internalType": "address",
          "name": "owner",
          "type": "address"
        },
        {
          "indexed": false,
          "internalType": "uint256",
          "name": "index",
          "type": "uint256"
        },
        {
          "indexed": false,
          "internalType": "string",
          "name": "name",
          "type": "string"
        },
        {
          "indexed": false,
          "internalType": "string",
          "name": "url",
          "type": "string"
        }
      ],
      "name": "LinkAdded",
      "type": "event"
    },
    {
      "anonymous": false,
      "inputs": [
        {
          "indexed": true,
          "internalType": "address",
          "name": "owner",
          "type": "address"
        },
        {
          "indexed": false,
          "internalType": "uint256",
          "name": "index",
          "type": "uint256"
        }
      ],
      "name": "LinkRemoved",
      "type": "event"
    },
    {
      "anonymous": false,
      "inputs": [
        {
          "indexed": true,
          "internalType": "address",
          "name": "owner",
          "type": "address"
        }
      ],
      "name": "LinksCleared",
      "type": "event"
    },
    {
      "anonymous": false,
      "inputs": [
        {
          "indexed": true,
          "internalType": "address",
          "name": "owner",
          "type": "address"
        }
      ],
      "name": "ProfileCreated",
      "type": "event"
    },
    {
      "anonymous": false,
      "inputs": [
        {
          "indexed": true,
          "internalType": "address",
          "name": "previousOwner",
          "type": "address"
        },
        {
          "indexed": true,
          "internalType": "address",
          "name": "newOwner",
          "type": "address"
        }
      ],
      "name": "ProfileOwnershipTransferred",
      "type": "event"
    },
    {
      "anonymous": false,
      "inputs": [
        {
          "indexed": true,
          "internalType": "address",
          "name": "owner",
          "type": "address"
        }
      ],
      "name": "ProfileUpdated",
      "type": "event"
    },
    {
      "inputs": [
        {
          "internalType": "address",
          "name": "delegate",
          "type": "address"
        }
      ],
      "name": "addDelegate",
      "outputs": [],
      "stateMutability": "nonpayable",
      "type": "function"
    },
    {
      "inputs": [
        {
          "internalType": "string",
          "name": "name",
          "type": "string"
        },
        {
          "internalType": "string",
          "name": "url",
          "type": "string"
        }
      ],
      "name": "addLink",
      "outputs": [],
      "stateMutability": "nonpayable",
      "type": "function"
    },
    {
      "inputs": [
        {
          "internalType": "address",
          "name": "actor",
          "type": "address"
        },
        {
          "internalType": "address",
          "name": "profileOwner",
          "type": "address"
        }
      ],
      "name": "canActAs",
      "outputs": [
        {
          "internalType": "bool",
          "name": "",
          "type": "bool"
        }
      ],
      "stateMutability": "view",
      "type": "function"
    },
    {
      "inputs": [],
      "name": "clearLinks",
      "outputs": [],
      "stateMutability": "nonpayable",
      "type": "function"
    },
    {
      "inputs": [],
      "name": "createDefaultProfile",
      "outputs": [],
      "stateMutability": "nonpayable",
      "type": "function"
    },
    {
      "inputs": [
        {
          "internalType": "string",
          "name": "displayName",
          "type": "string"
        },
        {
          "internalType": "string",
          "name": "bio",
          "type": "string"
        }
      ],
      "name": "createProfile",
      "outputs": [],
      "stateMutability": "nonpayable",
      "type": "function"
    },
    {
      "inputs": [
        {
          "internalType": "address",
          "name": "",
          "type": "address"
        }
      ],
      "name": "delegateToOwner",
      "outputs": [
        {
          "internalType": "address",
          "name": "",
          "type": "address"
        }
      ],
      "stateMutability": "view",
      "type": "function"
    },
    {
      "inputs": [
        {
          "internalType": "address",
          "name": "owner",
          "type": "address"
        }
      ],
      "name": "getLinkCount",
      "outputs": [
        {
          "internalType": "uint256",
          "name": "",
          "type": "uint256"
        }
      ],
      "stateMutability": "view",
      "type": "function"
    },
    {
      "inputs": [
        {
          "internalType": "address",
          "name": "owner",
          "type": "address"
        }
      ],
      "name": "getLinks",
      "outputs": [
        {
          "components": [
            {
              "internalType": "string",
              "name": "name",
              "type": "string"
            },
            {
              "internalType": "string",
              "name": "url",
              "type": "string"
            }
          ],
          "internalType": "struct UserRegistry.Link[]",
          "name": "",
          "type": "tuple[]"
        }
      ],
      "stateMutability": "view",
      "type": "function"
    },
    {
      "inputs": [
        {
          "internalType": "address",
          "name": "owner",
          "type": "address"
        }
      ],
      "name": "getProfile",
      "outputs": [
        {
          "components": [
            {
              "internalType": "address",
              "name": "owner",
              "type": "address"
            },
            {
              "internalType": "string",
              "name": "displayName",
              "type": "string"
            },
            {
              "internalType": "string",
              "name": "bio",
              "type": "string"
            },
            {
              "internalType": "bool",
              "name": "exists",
              "type": "bool"
            }
          ],
          "internalType": "struct UserRegistry.Profile",
          "name": "",
          "type": "tuple"
        }
      ],
      "stateMutability": "view",
      "type": "function"
    },
    {
      "inputs": [
        {
          "internalType": "address",
          "name": "addr",
          "type": "address"
        }
      ],
      "name": "hasProfile",
      "outputs": [
        {
          "internalType": "bool",
          "name": "",
          "type": "bool"
        }
      ],
      "stateMutability": "view",
      "type": "function"
    },
    {
      "inputs": [
        {
          "internalType": "address",
          "name": "",
          "type": "address"
        },
        {
          "internalType": "address",
          "name": "",
          "type": "address"
        }
      ],
      "name": "isDelegate",
      "outputs": [
        {
          "internalType": "bool",
          "name": "",
          "type": "bool"
        }
      ],
      "stateMutability": "view",
      "type": "function"
    },
    {
      "inputs": [
        {
          "internalType": "address",
          "name": "",
          "type": "address"
        }
      ],
      "name": "profiles",
      "outputs": [
        {
          "internalType": "address",
          "name": "owner",
          "type": "address"
        },
        {
          "internalType": "string",
          "name": "displayName",
          "type": "string"
        },
        {
          "internalType": "string",
          "name": "bio",
          "type": "string"
        },
        {
          "internalType": "bool",
          "name": "exists",
          "type": "bool"
        }
      ],
      "stateMutability": "view",
      "type": "function"
    },
    {
      "inputs": [
        {
          "internalType": "address",
          "name": "delegate",
          "type": "address"
        }
      ],
      "name": "removeDelegate",
      "outputs": [],
      "stateMutability": "nonpayable",
      "type": "function"
    },
    {
      "inputs": [
        {
          "internalType": "uint256",
          "name": "index",
          "type": "uint256"
        }
      ],
      "name": "removeLink",
      "outputs": [],
      "stateMutability": "nonpayable",
      "type": "function"
    },
    {
      "inputs": [
        {
          "internalType": "address",
          "name": "addr",
          "type": "address"
        }
      ],
      "name": "resolveToOwner",
      "outputs": [
        {
          "internalType": "address",
          "name": "",
          "type": "address"
        }
      ],
      "stateMutability": "view",
      "type": "function"
    },
    {
      "inputs": [
        {
          "internalType": "string",
          "name": "bio",
          "type": "string"
        }
      ],
      "name": "setBio",
      "outputs": [],
      "stateMutability": "nonpayable",
      "type": "function"
    },
    {
      "inputs": [
        {
          "internalType": "string",
          "name": "displayName",
          "type": "string"
        }
      ],
      "name": "setDisplayName",
      "outputs": [],
      "stateMutability": "nonpayable",
      "type": "function"
    },
    {
      "inputs": [
        {
          "internalType": "address",
          "name": "newOwner",
          "type": "address"
        }
      ],
      "name": "transferProfileOwnership",
      "outputs": [],
      "stateMutability": "nonpayable",
      "type": "function"
    }
  ],
  "bytecode": "0x608060405234801561001057600080fd5b5061252b806100206000396000f3fe608060405234801561001057600080fd5b50600436106101215760003560e01c806391e33085116100ad578063ba1feb8a11610071578063ba1feb8a146102df578063bbe15627146102f2578063bddd12b414610315578063e71bdf411461031d578063fb7e06d81461033057600080fd5b806391e330851461024057806398be0dd4146102535780639b25b23214610266578063a787c80b1461029d578063b080ae4f146102cc57600080fd5b80635fec5d0b116100f45780635fec5d0b146101c1578063603f7b59146101ff57806360e7be1a1461021257806367e7646f1461022557806375ca64fe1461023857600080fd5b80630c5856d4146101265780630f53a4701461016c5780630fec9efa1461018c5780634b9d8624146101a1575b600080fd5b61014f610134366004611dbc565b6002602052600090815260409020546001600160a01b031681565b6040516001600160a01b0390911681526020015b60405180910390f35b61017f61017a366004611dbc565b610343565b6040516101639190611e24565b61019f61019a366004611ed1565b6104e5565b005b6101b46101af366004611dbc565b6107cc565b6040516101639190611f3d565b6101ef6101cf366004611fc2565b600360209081526000928352604080842090915290825290205460ff1681565b6040519015158152602001610163565b61019f61020d366004611dbc565b610965565b6101ef610220366004611fc2565b610df6565b61019f610233366004611dbc565b610e4a565b61019f610f83565b61019f61024e366004611ff5565b611030565b61014f610261366004611dbc565b61118b565b61028f610274366004611dbc565b6001600160a01b031660009081526001602052604090205490565b604051908152602001610163565b6101ef6102ab366004611dbc565b6001600160a01b031660009081526020819052604090206003015460ff1690565b61019f6102da366004612037565b6111e8565b61019f6102ed366004611ed1565b61138b565b610305610300366004611dbc565b6115e8565b6040516101639493929190612050565b61019f61172e565b61019f61032b366004611dbc565b611861565b61019f61033e366004611ff5565b611aca565b610379604051806080016040528060006001600160a01b0316815260200160608152602001606081526020016000151581525090565b6001600160a01b038083166000908152602081815260409182902082516080810190935280549093168252600183018054929392918401916103ba9061209a565b80601f01602080910402602001604051908101604052809291908181526020018280546103e69061209a565b80156104335780601f1061040857610100808354040283529160200191610433565b820191906000526020600020905b81548152906001019060200180831161041657829003601f168201915b5050505050815260200160028201805461044c9061209a565b80601f01602080910402602001604051908101604052809291908181526020018280546104789061209a565b80156104c55780601f1061049a576101008083540402835291602001916104c5565b820191906000526020600020905b8154815290600101906020018083116104a857829003601f168201915b50505091835250506003919091015460ff16151560209091015292915050565b3360009081526020819052604090206003015460ff166105205760405162461bcd60e51b8152600401610517906120d4565b60405180910390fd5b336000818152602081905260409020546001600160a01b0316146105565760405162461bcd60e51b815260040161051790612104565b826105985760405162461bcd60e51b8152602060048201526012602482015271131a5b9ac81b985b59481c995c5d5a5c995960721b6044820152606401610517565b60328311156105de5760405162461bcd60e51b81526020600482015260126024820152714c696e6b206e616d6520746f6f206c6f6e6760701b6044820152606401610517565b8061061f5760405162461bcd60e51b8152602060048201526011602482015270131a5b9ac8155493081c995c5d5a5c9959607a1b6044820152606401610517565b60c88111156106645760405162461bcd60e51b81526020600482015260116024820152704c696e6b2055524c20746f6f206c6f6e6760781b6044820152606401610517565b33600090815260016020526040902054600a116106b25760405162461bcd60e51b815260206004820152600c60248201526b4d6178203130206c696e6b7360a01b6044820152606401610517565b33600090815260016020908152604091829020805483516060601f8901859004909402810184018552938401878152909391928291908990899081908501838280828437600092019190915250505090825250604080516020601f880181900481028201810190925286815291810191908790879081908401838280828437600092018290525093909452505083546001810185559381526020902082519293600202019182915061076490826121a9565b506020820151600182019061077990826121a9565b505050336001600160a01b03167fca6ab2d9b68c3ecb4269af6f144b31f2ffe6e2dedd099f53333e4c457986a25082878787876040516107bd95949392919061228c565b60405180910390a25050505050565b6001600160a01b0381166000908152600160209081526040808320805482518185028101850190935280835260609492939192909184015b8282101561095a57838290600052602060002090600202016040518060400160405290816000820180546108379061209a565b80601f01602080910402602001604051908101604052809291908181526020018280546108639061209a565b80156108b05780601f10610885576101008083540402835291602001916108b0565b820191906000526020600020905b81548152906001019060200180831161089357829003601f168201915b505050505081526020016001820180546108c99061209a565b80601f01602080910402602001604051908101604052809291908181526020018280546108f59061209a565b80156109425780601f1061091757610100808354040283529160200191610942565b820191906000526020600020905b81548152906001019060200180831161092557829003601f168201915b50505050508152505081526020019060010190610804565b505050509050919050565b3360009081526020819052604090206003015460ff166109975760405162461bcd60e51b8152600401610517906120d4565b336000818152602081905260409020546001600160a01b0316146109cd5760405162461bcd60e51b815260040161051790612104565b6001600160a01b038116610a175760405162461bcd60e51b815260206004820152601160248201527024b73b30b634b2103732bb9037bbb732b960791b6044820152606401610517565b6001600160a01b03811660009081526020819052604090206003015460ff1615610a7b5760405162461bcd60e51b81526020600482015260156024820152744e6577206f776e6572206861732070726f66696c6560581b6044820152606401610517565b6001600160a01b038181166000908152600260205260409020541615610adb5760405162461bcd60e51b81526020600482015260156024820152744e6577206f776e65722069732064656c656761746560581b6044820152606401610517565b604080516080810182526001600160a01b0383168152336000908152602081815292902060010180549192830191610b129061209a565b80601f0160208091040260200160405190810160405280929190818152602001828054610b3e9061209a565b8015610b8b5780601f10610b6057610100808354040283529160200191610b8b565b820191906000526020600020905b815481529060010190602001808311610b6e57829003601f168201915b50505050508152602001600080336001600160a01b03166001600160a01b031681526020019081526020016000206002018054610bc79061209a565b80601f0160208091040260200160405190810160405280929190818152602001828054610bf39061209a565b8015610c405780601f10610c1557610100808354040283529160200191610c40565b820191906000526020600020905b815481529060010190602001808311610c2357829003601f168201915b5050509183525050600160209182018190526001600160a01b03848116600090815280845260409020845181546001600160a01b03191692169190911781559183015190820190610c9190826121a9565b5060408201516002820190610ca690826121a9565b50606091909101516003909101805460ff1916911515919091179055336000908152600160205260408120905b8154811015610d5e576001600160a01b03831660009081526001602052604090208254839083908110610d0857610d086122c5565b6000918252602080832084546001810186559484529220600291820290920192020180610d3583826122db565b50600181810190610d48908401826122db565b5050508080610d56906123c6565b915050610cd3565b5033600090815260208190526040812080546001600160a01b031916815590610d8a6001830182611cfe565b610d98600283016000611cfe565b50600301805460ff19169055336000908152600160205260408120610dbc91611d3b565b6040516001600160a01b0383169033907f0ccb252632c8127b8affc3a2f8d4e4944d12b250cb0824306d6aedb97eb6081e90600090a35050565b6000816001600160a01b0316836001600160a01b031603610e1957506001610e44565b506001600160a01b0380821660009081526003602090815260408083209386168352929052205460ff165b92915050565b3360009081526020819052604090206003015460ff16610e7c5760405162461bcd60e51b8152600401610517906120d4565b336000818152602081905260409020546001600160a01b031614610eb25760405162461bcd60e51b815260040161051790612104565b3360009081526003602090815260408083206001600160a01b038516845290915290205460ff16610f165760405162461bcd60e51b815260206004820152600e60248201526d4e6f7420612064656c656761746560901b6044820152606401610517565b3360008181526003602090815260408083206001600160a01b038616808552908352818420805460ff19169055600290925280832080546001600160a01b0319169055519092917fe8514dd4be968431135580c26314ec35afafc8178268603f99625584960d9c1691a350565b3360009081526020819052604090206003015460ff16610fb55760405162461bcd60e51b8152600401610517906120d4565b336000818152602081905260409020546001600160a01b031614610feb5760405162461bcd60e51b815260040161051790612104565b33600090815260016020526040812061100391611d3b565b60405133907f4ebd2ae967d6ecec2b1279d60129082874a637b7e0ef3331d5e51c65df36172c90600090a2565b3360009081526020819052604090206003015460ff166110625760405162461bcd60e51b8152600401610517906120d4565b336000818152602081905260409020546001600160a01b0316146110985760405162461bcd60e51b815260040161051790612104565b806110dd5760405162461bcd60e51b8152602060048201526015602482015274111a5cdc1b185e481b985b59481c995c5d5a5c9959605a1b6044820152606401610517565b60328111156111265760405162461bcd60e51b8152602060048201526015602482015274446973706c6179206e616d6520746f6f206c6f6e6760581b6044820152606401610517565b3360009081526020819052604090206001016111438284836123df565b50336001600160a01b03167f1e9bee8140e85de651adf10e9e40c4a2b2b5c1004c1c855aa7f29391a899c5a6838360405161117f929190612499565b60405180910390a25050565b6001600160a01b0380821660009081526002602052604081205490911680156111b45792915050565b6001600160a01b03831660009081526020819052604090206003015460ff16156111df575090919050565b50600092915050565b3360009081526020819052604090206003015460ff1661121a5760405162461bcd60e51b8152600401610517906120d4565b336000818152602081905260409020546001600160a01b0316146112505760405162461bcd60e51b815260040161051790612104565b336000908152600160205260409020805482106112a55760405162461bcd60e51b8152602060048201526013602482015272496e646578206f7574206f6620626f756e647360681b6044820152606401610517565b805481906112b5906001906124b5565b815481106112c5576112c56122c5565b90600052602060002090600202018183815481106112e5576112e56122c5565b600091825260209091206002909102018061130083826122db565b50600181810190611313908401826122db565b5090505080805480611327576113276124c8565b600082815260208120600019909201916002830201906113478282611cfe565b611355600183016000611cfe565b5050905560405182815233907f7797729365faace2de241145f732a8f81af7571d5a3c7deac73664d67478447f9060200161117f565b3360009081526020819052604090206003015460ff16156113e75760405162461bcd60e51b815260206004820152601660248201527550726f66696c6520616c72656164792065786973747360501b6044820152606401610517565b8261142c5760405162461bcd60e51b8152602060048201526015602482015274111a5cdc1b185e481b985b59481c995c5d5a5c9959605a1b6044820152606401610517565b60328311156114755760405162461bcd60e51b8152602060048201526015602482015274446973706c6179206e616d6520746f6f206c6f6e6760581b6044820152606401610517565b6101f48111156114b65760405162461bcd60e51b815260206004820152600c60248201526b42696f20746f6f206c6f6e6760a01b6044820152606401610517565b6040518060800160405280336001600160a01b0316815260200185858080601f016020809104026020016040519081016040528093929190818152602001838380828437600092019190915250505090825250604080516020601f86018190048102820181019092528481529181019190859085908190840183828082843760009201829052509385525050600160209384018190523383528284526040909220845181546001600160a01b0319166001600160a01b0390911617815592840151918301916115869150826121a9565b506040820151600282019061159b90826121a9565b50606091909101516003909101805460ff191691151591909117905560405133907ff10ec97e920cde75887622583772c637595a40b1f7777c18e51ea36cd127475c90600090a250505050565b600060208190529081526040902080546001820180546001600160a01b0390921692916116149061209a565b80601f01602080910402602001604051908101604052809291908181526020018280546116409061209a565b801561168d5780601f106116625761010080835404028352916020019161168d565b820191906000526020600020905b81548152906001019060200180831161167057829003601f168201915b5050505050908060020180546116a29061209a565b80601f01602080910402602001604051908101604052809291908181526020018280546116ce9061209a565b801561171b5780601f106116f05761010080835404028352916020019161171b565b820191906000526020600020905b8154815290600101906020018083116116fe57829003601f168201915b5050506003909301549192505060ff1684565b3360009081526020819052604090206003015460ff161561178a5760405162461bcd60e51b815260206004820152601660248201527550726f66696c6520616c72656164792065786973747360501b6044820152606401610517565b600061179533611bcc565b604080516080810182523380825260208083018581528451808301865260008082528587019190915260016060860181905293815291829052939020825181546001600160a01b0319166001600160a01b03909116178155925193945090929082019061180290826121a9565b506040820151600282019061181790826121a9565b50606091909101516003909101805460ff191691151591909117905560405133907ff10ec97e920cde75887622583772c637595a40b1f7777c18e51ea36cd127475c90600090a250565b3360009081526020819052604090206003015460ff166118935760405162461bcd60e51b8152600401610517906120d4565b336000818152602081905260409020546001600160a01b0316146118c95760405162461bcd60e51b815260040161051790612104565b6001600160a01b03811661191f5760405162461bcd60e51b815260206004820152601860248201527f496e76616c69642064656c6567617465206164647265737300000000000000006044820152606401610517565b336001600160a01b038216036119775760405162461bcd60e51b815260206004820152601760248201527f43616e6e6f742064656c656761746520746f2073656c660000000000000000006044820152606401610517565b3360009081526003602090815260408083206001600160a01b038516845290915290205460ff16156119e05760405162461bcd60e51b8152602060048201526012602482015271416c726561647920612064656c656761746560701b6044820152606401610517565b6001600160a01b038181166000908152600260205260409020541615611a585760405162461bcd60e51b815260206004820152602760248201527f416464726573732069732064656c656761746520666f7220616e6f746865722060448201526670726f66696c6560c81b6064820152608401610517565b3360008181526003602090815260408083206001600160a01b038616808552908352818420805460ff19166001179055600290925280832080546001600160a01b03191685179055519092917f12dade473695d73bd34e031c850d5e815fa17a42b1b5ba13ff72de2497c5e30991a350565b3360009081526020819052604090206003015460ff16611afc5760405162461bcd60e51b8152600401610517906120d4565b336000818152602081905260409020546001600160a01b031614611b325760405162461bcd60e51b815260040161051790612104565b6101f4811115611b735760405162461bcd60e51b815260206004820152600c60248201526b42696f20746f6f206c6f6e6760a01b6044820152606401610517565b336000908152602081905260409020600201611b908284836123df565b50336001600160a01b03167f3f838a7d0889a59b2445af5389196b3948170278848eb90d8d256ab14aaf4cf0838360405161117f929190612499565b604080518082018252601081526f181899199a1a9b1b9c1cb0b131b232b360811b60208201528151600a80825281840190935260609260009190602082018180368337019050509050600360fc1b81600081518110611c2d57611c2d6122c5565b60200101906001600160f81b031916908160001a905350600f60fb1b81600181518110611c5c57611c5c6122c5565b60200101906001600160f81b031916908160001a9053508360095b60028110611cf4578382600f166001600160a01b031681518110611c9d57611c9d6122c5565b602001015160f81c60f81b838281518110611cba57611cba6122c5565b60200101906001600160f81b031916908160001a9053506004826001600160a01b0316901c91508080611cec906124de565b915050611c77565b5090949350505050565b508054611d0a9061209a565b6000825580601f10611d1a575050565b601f016020900490600052602060002090810190611d389190611d5c565b50565b5080546000825560020290600052602060002090810190611d389190611d75565b5b80821115611d715760008155600101611d5d565b5090565b80821115611d71576000611d898282611cfe565b611d97600183016000611cfe565b50600201611d75565b80356001600160a01b0381168114611db757600080fd5b919050565b600060208284031215611dce57600080fd5b611dd782611da0565b9392505050565b6000815180845260005b81811015611e0457602081850181015186830182015201611de8565b506000602082860101526020601f19601f83011685010191505092915050565b602080825282516001600160a01b03168282015282015160806040830152600090611e5260a0840182611dde565b90506040840151601f19848303016060850152611e6f8282611dde565b9150506060840151151560808401528091505092915050565b60008083601f840112611e9a57600080fd5b50813567ffffffffffffffff811115611eb257600080fd5b602083019150836020828501011115611eca57600080fd5b9250929050565b60008060008060408587031215611ee757600080fd5b843567ffffffffffffffff80821115611eff57600080fd5b611f0b88838901611e88565b90965094506020870135915080821115611f2457600080fd5b50611f3187828801611e88565b95989497509550505050565b60006020808301818452808551808352604092508286019150828160051b87010184880160005b83811015611fb457888303603f1901855281518051878552611f8888860182611dde565b91890151858303868b0152919050611fa08183611dde565b968901969450505090860190600101611f64565b509098975050505050505050565b60008060408385031215611fd557600080fd5b611fde83611da0565b9150611fec60208401611da0565b90509250929050565b6000806020838503121561200857600080fd5b823567ffffffffffffffff81111561201f57600080fd5b61202b85828601611e88565b90969095509350505050565b60006020828403121561204957600080fd5b5035919050565b6001600160a01b038516815260806020820181905260009061207490830186611dde565b82810360408401526120868186611dde565b915050821515606083015295945050505050565b600181811c908216806120ae57607f821691505b6020821081036120ce57634e487b7160e01b600052602260045260246000fd5b50919050565b602080825260169082015275141c9bd99a5b1948191bd95cc81b9bdd08195e1a5cdd60521b604082015260600190565b6020808252601190820152702737ba10383937b334b6329037bbb732b960791b604082015260600190565b634e487b7160e01b600052604160045260246000fd5b601f82111561218f57600081815260208120601f850160051c8101602086101561216c5750805b601f850160051c820191505b8181101561218b57828155600101612178565b5050505b505050565b600019600383901b1c191660019190911b1790565b815167ffffffffffffffff8111156121c3576121c361212f565b6121d7816121d1845461209a565b84612145565b602080601f83116001811461220657600084156121f45750858301515b6121fe8582612194565b86555061218b565b600085815260208120601f198616915b8281101561223557888601518255948401946001909101908401612216565b50858210156122535787850151600019600388901b60f8161c191681555b5050505050600190811b01905550565b81835281816020850137506000828201602090810191909152601f909101601f19169091010190565b8581526060602082015260006122a6606083018688612263565b82810360408401526122b9818587612263565b98975050505050505050565b634e487b7160e01b600052603260045260246000fd5b8181036122e6575050565b6122f0825461209a565b67ffffffffffffffff8111156123085761230861212f565b612316816121d1845461209a565b6000601f82116001811461234457600083156123325750848201545b61233c8482612194565b8555506123a9565b600085815260209020601f19841690600086815260209020845b8381101561237e578286015482556001958601959091019060200161235e565b508583101561239c5781850154600019600388901b60f8161c191681555b50505060018360011b0184555b5050505050565b634e487b7160e01b600052601160045260246000fd5b6000600182016123d8576123d86123b0565b5060010190565b67ffffffffffffffff8311156123f7576123f761212f565b61240b83612405835461209a565b83612145565b6000601f84116001811461243957600085156124275750838201355b6124318682612194565b8455506123a9565b600083815260209020601f19861690835b8281101561246a578685013582556020948501946001909201910161244a565b50868210156124875760001960f88860031b161c19848701351681555b505060018560011b0183555050505050565b6020815260006124ad602083018486612263565b949350505050565b81810381811115610e4457610e446123b0565b634e487b7160e01b600052603160045260246000fd5b6000816124ed576124ed6123b0565b50600019019056fea2646970667358221220a6a61cb85af86017c8596aa404fb6e90778e46ca660942d7c2a34d4c974c295564736f6c63430008140033",
  "linkReferences": {},
  "deployedLinkReferences": {}
}